:100000000C942A000C94A0010C9447000C94470017
:100010000C9447000C9447000C9447000C94470044
:100020000C9447000C9447000C9447000C94470034
:100030000C9447000C9447000C9447000C94470024
:100040000C9447000C9447000C9447000C94470014
:100050000C94470011241FBECFE5D8E0DEBFCDBF12
:1000600010E0A0E6B0E0ECE1FCE002C005900D92EB
:10007000A236B107D9F720E0A2E6B0E001C01D9298
:10008000A736B207E1F70E9477010C940C060C9496
:100090000000982F862F40E0692F0E94EB01089501
:1000A000982F862F41E0692F0E94EB010895982F29
:1000B000862F41E0692F0E948D020895982F862F88
:1000C00040E0692F0E948D0281E00895982F862FCD
:1000D000692F0E944103089560E082E40E945E005F
:1000E00061E082E40E945E0062E082E40E945E00C1
:1000F00060E081E40E945E0061E081E40E945E00B5
:1001000062E081E40E945E000895CF93DF93C0E037
:10011000D0E080E009C061E081E40E94660088EEE2
:1001200093E00E94FF032196C530D105A4F3DF912F
:10013000CF910895CF93DF93C0E0D0E00DC061E090
:1001400081E40E94660061E082E40E94660088EE1D
:1001500093E00E94FF032196C530D10584F380E02F
:10016000DF91CF91089580916400882321F0813040
:1001700009F453C0F8CF809163008130D9F018F0B2
:10018000823091F1F0CF0E946C0060E081E40E9427
:10019000570088E893E10E94FF03809160008A3A4B
:1001A00019F410926300DFCF81E080936300109216
:1001B0006200D9CF0E946C000E948500809160008F
:1001C0008A3A21F481E080936300CDCF8091620070
:1001D000811104C082E080936300C5CF1092630058
:1001E00081E080936200BFCF0E946C0062E081E4F6
:1001F0000E94570088E893E10E94FF03809160000D
:100200008A3A21F482E080936300ADCF81E080934D
:10021000630082E080936200A6CF8AEA8093600048
:1002200080916300813049F120F0823009F44AC0A6
:100230009ACF0E946C0060E081E40E94570062E067
:1002400082E40E94570088E893E10E94FF038091B6
:100250006500811107C081E08093630083E0809393
:10026000650008C081E0809363001092640085E51A
:10027000809360001092620076CF0E946C008091A3
:100280006500813059F482E08093630083E08093BD
:10029000650062E082E40E945E000AC08091620014
:1002A000811104C082E08093630002C01092630059
:1002B00062E082E40E945E000E949A0081E08093E6
:1002C000620051CF0E946C0060E082E40E945700FF
:1002D00062E081E40E94570088E893E10E94FF03F6
:1002E00081E08093630082E0809362003CCF60E015
:1002F00081E40E94500061E081E40E94500062E0CD
:1003000081E40E94500060E082E40E94500061E0BD
:1003100082E40E94500062E082E40E94500082B3B6
:1003200062E00E94490060E082E00E94FC03789451
:1003300085B7836085BF8BB780648BBF0E94B30095
:100340001F920F920FB60F9211242F933F934F934A
:100350005F936F937F938F939F93AF93BF93EF932D
:10036000FF9380916000853529F58AEA80936000CB
:10037000809163008093650091E0909364008130E8
:1003800059F018F0823081F015C062E082E40E94DA
:100390005700109263000EC062E082E40E94570092
:1003A00081E08093630006C060E082E40E94570011
:1003B00010926300FF91EF91BF91AF919F918F9148
:1003C0007F916F915F914F913F912F910F900FBE51
:1003D0000F901F901895883008F093C0623469F12F
:1003E00018F4613441F08FC0633409F448C06434B8
:1003F00009F466C088C041110FC04AB321E030E063
:10040000B90102C0660F771F8A95E2F7CB0180958C
:1004100084238ABB80E00895413009F076C04AB356
:1004200021E030E0B90102C0660F771F8A95E2F73C
:10043000CB01842B8ABB80E0089541110FC047B3E4
:1004400021E030E0B90102C0660F771F8A95E2F71C
:10045000CB018095842387BB80E00895413009F06B
:1004600056C047B321E030E0B90102C0660F771FE4
:100470008A95E2F7CB01842B87BB80E00895411178
:100480000FC044B321E030E0B90102C0660F771F0E
:100490008A95E2F7CB018095842384BB80E00895A0
:1004A0004130B9F544B321E030E0B90102C0660F34
:1004B000771F8A95E2F7CB01842B84BB80E00895F7
:1004C00041110FC041B321E030E0B90102C0660F15
:1004D000771F8A95E2F7CB018095842381BB80E06A
:1004E00008954130C1F444B321E030E0B90102C0C5
:1004F000660F771F8A95E2F7CB01842B84BB80E0DF
:10050000089581E0089581E0089581E0089581E0F3
:10051000089581E0089581E00895883008F09DC035
:10052000623481F118F4613441F099C0633409F404
:100530004EC0643409F46EC092C02AB361E070E02A
:10054000082E02C0660F771F0A94E2F730E02623D8
:100550003723F90102C0F595E7958A95E2F7EF2B6D
:1005600009F47FC0411106C08BB3609568236BBB53
:1005700080E00895413009F076C08BB3682B6BBBE7
:1005800080E0089527B361E070E0082E02C0660F96
:10059000771F0A94E2F730E026233723F90102C0DF
:1005A000F595E7958A95E2F7EF2B09F45EC04111C6
:1005B00006C088B36095682368BB80E00895413029
:1005C00009F055C088B3682B68BB80E0089524B358
:1005D00061E070E0082E02C0660F771F0A94E2F710
:1005E00030E026233723F90102C0F595E7958A9577
:1005F000E2F7EF2BF1F1411106C085B36095682356
:1006000065BB80E008954130B1F585B3682B65BBCB
:1006100080E0089521B361E070E0082E02C0660F0B
:10062000771F0A94E2F730E026233723F90102C04E
:10063000F595E7958A95E2F7EF2BF9F0411106C0A1
:1006400082B36095682362BB80E008954130B9F4BD
:1006500082B3682B62BB80E0089581E0089581E059
:10066000089581E0089581E0089581E0089581E092
:10067000089581E0089581E0089581E0089581E082
:100680000895883008F071C0623421F118F46134A3
:1006900039F06BC06334B9F1643409F44DC065C0FE
:1006A0002AB341E050E0082E02C0440F551F0A94BF
:1006B000E2F730E024233523B90102C07595679530
:1006C0008A95E2F7CB01892B09F44FC08BB34827F9
:1006D0004BBB4AC027B341E050E0082E02C0440F94
:1006E000551F0A94E2F730E024233523B90102C0F4
:1006F000759567958A95E2F7CB01892BB1F188B39F
:10070000482748BB31C024B341E050E0082E02C066
:10071000440F551F0A94E2F730E024233523B90132
:1007200002C0759567958A95E2F7CB01892BE9F0B0
:1007300085B3482745BB18C021B341E050E0082EDF
:1007400002C0440F551F0A94E2F730E024233523FA
:10075000B90102C0759567958A95E2F7CB01892B9F
:1007600021F082B3482742BB089581E0089513BE6B
:10077000643078F593B720E1629FB0011124692BB2
:1007800063BF813071F028F0823099F08330C9F076
:1007900022C083B7877F83BF83B78F7B83BF80E00F
:1007A000089583B7806483BF83B7877F83BF80E06A
:1007B000089583B78F7B83BF83B7886083BF80E052
:1007C000089583B7886083BF83B7806483BF80E068
:1007D000089581E0089581E00895683038F412BEEC
:1007E0008CBF83B7682B63BF80E0089581E00895D4
:1007F00013BE1CBE80E008950E94B70308958F9237
:100800009F92AF92BF92CF92DF92EF92FF920F939F
:100810001F93CF93DF9300D000D0CDB7DEB79C837A
:100820008B8383E089836B817C8180E090E00E94F0
:100830007E052FE632E143E851E40E94DD0420E02A
:1008400030E040E85FE30E9471040E944F056B01B5
:100850007C018B016B817C8180E090E00E947E05B1
:100860002FE632E143E85DE30E94DD044B015C01C9
:10087000B60180E090E00E947E059B01AC01C501BD
:10088000B4010E94DD040E944F056A8369818A8158
:100890000E94ED03813099F020E030E00BC008B6F3
:1008A00001FEFDCF88B7826088BF88B7816088BFAE
:1008B0002F5F3F4F2017310790F30E94F8030F90EE
:1008C0000F900F900F90DF91CF911F910F91FF909C
:1008D000EF90DF90CF90BF90AF909F908F90089552
:1008E0005058BB27AA270E9488040C94D2050E9466
:1008F000C40538F00E94CB0520F039F49F3F19F46D
:1009000026F40C94C1050EF4E095E7FB0C94BB05AE
:10091000E92F0E94E30558F3BA17620773078407AB
:10092000950720F079F4A6F50C9405060EF4E095F1
:100930000B2EBA2FA02D0B01B90190010C01CA0199
:10094000A0011124FF27591B99F0593F50F4503E44
:1009500068F11A16F040A22F232F342F4427585F36
:10096000F3CF469537952795A795F0405395C9F74E
:100970007EF41F16BA0B620B730B840BBAF0915006
:10098000A1F0FF0FBB1F661F771F881FC2F70EC0A5
:10099000BA0F621F731F841F48F487957795679578
:1009A000B795F7959E3F08F0B0CF9395880F08F064
:1009B0009927EE0F9795879508950E94F1040C945E
:1009C000D2050E94CB0558F00E94C40540F029F4DE
:1009D0005F3F29F00C94BB0551110C9406060C9452
:1009E000C1050E94E30568F39923B1F3552391F300
:1009F000951B550BBB27AA2762177307840738F08E
:100A00009F5F5F4F220F331F441FAA1FA9F335D0EA
:100A10000E2E3AF0E0E832D091505040E695001C9E
:100A2000CAF72BD0FE2F29D0660F771F881FBB1F58
:100A3000261737074807AB07B0E809F0BB0B802D36
:100A4000BF01FF2793585F4F3AF09E3F510578F062
:100A50000C94BB050C9406065F3FE4F3983ED4F378
:100A6000869577956795B795F7959F5FC9F7880F36
:100A7000911D9695879597F90895E1E0660F771F88
:100A8000881FBB1F621773078407BA0720F0621B19
:100A9000730B840BBA0BEE1F88F7E09508950E9444
:100AA000EB0588F09F5798F0B92F9927B751B0F010
:100AB000E1F0660F771F881F991F1AF0BA95C9F7E2
:100AC00014C0B13091F00E940506B1E008950C9475
:100AD0000506672F782F8827B85F39F0B93FCCF328
:100AE000869577956795B395D9F73EF4909580955F
:100AF000709561957F4F8F4F9F4F0895E89409C07F
:100B000097FB3EF490958095709561957F4F8F4F40
:100B10009F4F9923A9F0F92F96E9BB279395F69556
:100B2000879577956795B795F111F8CFFAF4BB0FD4
:100B300011F460FF1BC06F5F7F4F8F4F9F4F16C038
:100B4000882311F096E911C0772321F09EE8872FC2
:100B5000762F05C0662371F096E8862F70E060E07E
:100B60002AF09A95660F771F881FDAF7880F9695F7
:100B7000879597F9089597F99F6780E870E060E09E
:100B800008959FEF80EC089500240A941616170626
:100B900018060906089500240A941216130614066E
:100BA00005060895092E0394000C11F4882352F0D1
:100BB000BB0F40F4BF2B11F460FF04C06F5F7F4F89
:100BC0008F4F9F4F089557FD9058440F551F59F070
:100BD0005F3F71F04795880F97FB991F61F09F3F2A
:100BE00079F087950895121613061406551FF2CF53
:100BF0004695F1DF08C0161617061806991FF1CFA3
:100C000086957105610508940895E894BB276627C9
:0C0C10007727CB0197F90895F894FFCFE7
:020C1C00550081
:00000001FF
